{
  "contractName": "StudentRecord",
  "abi": [
    {
      "inputs": [],
      "payable": false,
      "stateMutability": "nonpayable",
      "type": "constructor"
    },
    {
      "constant": true,
      "inputs": [],
      "name": "blockholic",
      "outputs": [
        {
          "internalType": "address",
          "name": "",
          "type": "address"
        }
      ],
      "payable": false,
      "stateMutability": "view",
      "type": "function"
    },
    {
      "constant": false,
      "inputs": [
        {
          "internalType": "bytes32",
          "name": "_fullName",
          "type": "bytes32"
        },
        {
          "internalType": "bytes32",
          "name": "_courseName",
          "type": "bytes32"
        },
        {
          "internalType": "uint256",
          "name": "_score",
          "type": "uint256"
        },
        {
          "internalType": "address",
          "name": "_studentAddress",
          "type": "address"
        }
      ],
      "name": "addStudent",
      "outputs": [],
      "payable": false,
      "stateMutability": "nonpayable",
      "type": "function"
    },
    {
      "constant": true,
      "inputs": [],
      "name": "getAllStudentAddress",
      "outputs": [
        {
          "internalType": "address[]",
          "name": "",
          "type": "address[]"
        }
      ],
      "payable": false,
      "stateMutability": "view",
      "type": "function"
    },
    {
      "constant": true,
      "inputs": [],
      "name": "getAllStudents",
      "outputs": [
        {
          "internalType": "bytes32[]",
          "name": "",
          "type": "bytes32[]"
        },
        {
          "internalType": "bytes32[]",
          "name": "",
          "type": "bytes32[]"
        },
        {
          "internalType": "uint256[]",
          "name": "",
          "type": "uint256[]"
        }
      ],
      "payable": false,
      "stateMutability": "view",
      "type": "function"
    },
    {
      "constant": true,
      "inputs": [],
      "name": "numberOfStudents",
      "outputs": [
        {
          "internalType": "uint256",
          "name": "",
          "type": "uint256"
        }
      ],
      "payable": false,
      "stateMutability": "view",
      "type": "function"
    }
  ],
  "bytecode": "0x608060405234801561001057600080fd5b506040518060400160405280600a81526020017f426c6f636b686f6c6963000000000000000000000000000000000000000000008152506001908051906020019061005c9291906100a2565b50336000806101000a81548173ffffffffffffffffffffffffffffffffffffffff021916908373ffffffffffffffffffffffffffffffffffffffff160217905550610147565b828054600181600116156101000203166002900490600052602060002090601f016020900481019282601f106100e357805160ff1916838001178555610111565b82800160010185558215610111579182015b828111156101105782518255916020019190600101906100f5565b5b50905061011e9190610122565b5090565b61014491905b80821115610140576000816000905550600101610128565b5090565b90565b610954806101566000396000f3fe608060405234801561001057600080fd5b50600436106100575760003560e01c80632034c92f1461005c57806341c6e7c8146100be57806393199b09146101085780639fde094314610126578063e9e3092714610185575b600080fd5b6100bc6004803603608081101561007257600080fd5b81019080803590602001909291908035906020019092919080359060200190929190803573ffffffffffffffffffffffffffffffffffffffff169060200190929190505050610274565b005b6100c6610596565b604051808273ffffffffffffffffffffffffffffffffffffffff1673ffffffffffffffffffffffffffffffffffffffff16815260200191505060405180910390f35b6101106105bb565b6040518082815260200191505060405180910390f35b61012e6105c8565b6040518080602001828103825283818151815260200191508051906020019060200280838360005b83811015610171578082015181840152602081019050610156565b505050509050019250505060405180910390f35b61018d6106ac565b60405180806020018060200180602001848103845287818151815260200191508051906020019060200280838360005b838110156101d85780820151818401526020810190506101bd565b50505050905001848103835286818151815260200191508051906020019060200280838360005b8381101561021a5780820151818401526020810190506101ff565b50505050905001848103825285818151815260200191508051906020019060200280838360005b8381101561025c578082015181840152602081019050610241565b50505050905001965050505050505060405180910390f35b6000809054906101000a900473ffffffffffffffffffffffffffffffffffffffff1673ffffffffffffffffffffffffffffffffffffffff163373ffffffffffffffffffffffffffffffffffffffff1614610336576040517f08c379a000000000000000000000000000000000000000000000000000000000815260040180806020018281038252601c8152602001807f596f75206172656e277420617574686f72697a656420706572736f6e0000000081525060200191505060405180910390fd5b61033e61082f565b6040518060a001604052808681526020018581526020018481526020018373ffffffffffffffffffffffffffffffffffffffff16815260200160018054600181600116156101000203166002900480601f01602080910402602001604051908101604052809291908181526020018280546001816001161561010002031660029004801561040d5780601f106103e25761010080835404028352916020019161040d565b820191906000526020600020905b8154815290600101906020018083116103f057829003601f168201915b505050505081525090506002819080600181540180825580915050906001820390600052602060002090600502016000909192909190915060008201518160000155602082015181600101556040820151816002015560608201518160030160006101000a81548173ffffffffffffffffffffffffffffffffffffffff021916908373ffffffffffffffffffffffffffffffffffffffff16021790555060808201518160040190805190602001906104c692919061087a565b5050505080600360008473ffffffffffffffffffffffffffffffffffffffff1673ffffffffffffffffffffffffffffffffffffffff16815260200190815260200160002060008201518160000155602082015181600101556040820151816002015560608201518160030160006101000a81548173ffffffffffffffffffffffffffffffffffffffff021916908373ffffffffffffffffffffffffffffffffffffffff160217905550608082015181600401908051906020019061058b92919061087a565b509050505050505050565b6000809054906101000a900473ffffffffffffffffffffffffffffffffffffffff1681565b6000600280549050905090565b6060806002805490506040519080825280602002602001820160405280156105ff5781602001602082028038833980820191505090505b50905060005b6002805490508110156106a4576002818154811061061f57fe5b906000526020600020906005020160030160009054906101000a900473ffffffffffffffffffffffffffffffffffffffff1682828151811061065d57fe5b602002602001019073ffffffffffffffffffffffffffffffffffffffff16908173ffffffffffffffffffffffffffffffffffffffff16815250508080600101915050610605565b508091505090565b6060806060806002805490506040519080825280602002602001820160405280156106e65781602001602082028038833980820191505090505b509050606060028054905060405190808252806020026020018201604052801561071f5781602001602082028038833980820191505090505b50905060606002805490506040519080825280602002602001820160405280156107585781602001602082028038833980820191505090505b50905060005b60028054905081101561081d576002818154811061077857fe5b90600052602060002090600502016000015484828151811061079657fe5b602002602001018181525050600281815481106107af57fe5b9060005260206000209060050201600101548382815181106107cd57fe5b602002602001018181525050600281815481106107e657fe5b90600052602060002090600502016002015482828151811061080457fe5b602002602001018181525050808060010191505061075e565b50828282955095509550505050909192565b6040518060a00160405280600080191681526020016000801916815260200160008152602001600073ffffffffffffffffffffffffffffffffffffffff168152602001606081525090565b828054600181600116156101000203166002900490600052602060002090601f016020900481019282601f106108bb57805160ff19168380011785556108e9565b828001600101855582156108e9579182015b828111156108e85782518255916020019190600101906108cd565b5b5090506108f691906108fa565b5090565b61091c91905b80821115610918576000816000905550600101610900565b5090565b9056fea265627a7a723158207e4461d4bf6f216b3fa20a254e87c9e5a14bd34fafdcbf15f866de78da36dbd464736f6c63430005100032",
  "source": "pragma solidity 0.5.16;\r\n\r\ncontract StudentRecord{\r\n    address public blockholic;\r\n    string fromBlockholic;\r\n    \r\n    constructor() public{\r\n        fromBlockholic=\"Blockholic\";\r\n        blockholic=msg.sender;\r\n    }\r\n    modifier onlyBlockholic(){\r\n        require(msg.sender==blockholic,\"You aren't authorized person\");\r\n        _;\r\n    }\r\n     /* create a struct for individual student details*/\r\n    struct Student{\r\n        bytes32 _fullName;\r\n        bytes32 _courseName;\r\n        uint256 _score;\r\n        address _studentAddress;\r\n        string _createBy;\r\n    }\r\n    Student[] students; /* array of student struct*/\r\n    mapping(address=>Student) studentAddressList;/*mapping gives list of student addresses */\r\n    \r\n    function addStudent(bytes32 _fullName,bytes32 _courseName,uint256 _score,address _studentAddress)public onlyBlockholic(){\r\n        /* adding student details only blockholic */\r\n        /*create instance of the struct */\r\n        \r\n        Student memory _student = Student(_fullName,_courseName,_score,_studentAddress,fromBlockholic);\r\n        students.push(_student); /*push the student record to the array*/\r\n        studentAddressList[_studentAddress]=_student;/*instance address pass to studentAddressList*/\r\n    }\r\n    /* function for get all students address*/\r\n    function getAllStudentAddress()public view returns(address[] memory){\r\n        address[] memory _studentAddresses= new address[](students.length);\r\n        for(uint i;i<students.length;i++){\r\n            _studentAddresses[i]= students[i]._studentAddress;\r\n        }\r\n        return(_studentAddresses);\r\n    }\r\n    /* function for get all the students details */\r\n    function getAllStudents()public view returns(bytes32[] memory,bytes32[] memory,uint256[] memory){\r\n        bytes32[] memory _fullNames = new bytes32[](students.length);\r\n        bytes32[] memory _courseNames =new bytes32[](students.length);\r\n        uint256[] memory _scores = new uint256[](students.length);\r\n        \r\n        for(uint i;i<students.length;i++){\r\n            _fullNames[i]=students[i]._fullName;\r\n            _courseNames[i]=students[i]._courseName;\r\n            _scores[i]=students[i]._score;            \r\n        }\r\n        return(_fullNames,_courseNames,_scores);        \r\n    }\r\n    /*function for get how many students are there in blockholic */\r\n    function numberOfStudents()public view returns(uint256){\r\n        return students.length;\r\n    }\r\n}",
  "sourcePath": "C:/Users/USER/Desktop/truffle/truffle_studentrecord/contracts/StudentRecord.sol",
  "compiler": {
    "name": "solc",
    "version": "0.5.16+commit.9c3226ce.Emscripten.clang"
  },
  "schemaVersion": "3.2.2",
  "updatedAt": "2020-08-03T07:12:42.853Z",
  "networkType": "ethereum",
  "devdoc": {
    "methods": {}
  },
  "userdoc": {
    "methods": {}
  }
}