{
  "contractName": "StudentRecord",
  "abi": [
    {
      "inputs": [],
      "payable": false,
      "stateMutability": "nonpayable",
      "type": "constructor"
    },
    {
      "constant": true,
      "inputs": [],
      "name": "blockholic",
      "outputs": [
        {
          "internalType": "address",
          "name": "",
          "type": "address"
        }
      ],
      "payable": false,
      "stateMutability": "view",
      "type": "function"
    },
    {
      "constant": true,
      "inputs": [
        {
          "internalType": "uint256",
          "name": "",
          "type": "uint256"
        }
      ],
      "name": "student",
      "outputs": [
        {
          "internalType": "address",
          "name": "studentAddress",
          "type": "address"
        },
        {
          "internalType": "bytes32",
          "name": "fullName",
          "type": "bytes32"
        },
        {
          "internalType": "bytes32",
          "name": "courseName",
          "type": "bytes32"
        },
        {
          "internalType": "uint256",
          "name": "score",
          "type": "uint256"
        },
        {
          "internalType": "string",
          "name": "createdBy",
          "type": "string"
        }
      ],
      "payable": false,
      "stateMutability": "view",
      "type": "function"
    },
    {
      "constant": false,
      "inputs": [
        {
          "internalType": "address",
          "name": "_studentAddress",
          "type": "address"
        },
        {
          "internalType": "bytes32",
          "name": "_fullName",
          "type": "bytes32"
        },
        {
          "internalType": "bytes32",
          "name": "_courseName",
          "type": "bytes32"
        },
        {
          "internalType": "uint256",
          "name": "_score",
          "type": "uint256"
        }
      ],
      "name": "addStudent",
      "outputs": [],
      "payable": false,
      "stateMutability": "nonpayable",
      "type": "function"
    },
    {
      "constant": true,
      "inputs": [],
      "name": "getAllStudentAddress",
      "outputs": [
        {
          "internalType": "address[]",
          "name": "",
          "type": "address[]"
        }
      ],
      "payable": false,
      "stateMutability": "view",
      "type": "function"
    },
    {
      "constant": true,
      "inputs": [],
      "name": "getAllStudents",
      "outputs": [
        {
          "internalType": "bytes32[]",
          "name": "",
          "type": "bytes32[]"
        },
        {
          "internalType": "bytes32[]",
          "name": "",
          "type": "bytes32[]"
        },
        {
          "internalType": "uint256[]",
          "name": "",
          "type": "uint256[]"
        }
      ],
      "payable": false,
      "stateMutability": "view",
      "type": "function"
    },
    {
      "constant": true,
      "inputs": [],
      "name": "numberOfStudents",
      "outputs": [
        {
          "internalType": "uint256",
          "name": "",
          "type": "uint256"
        }
      ],
      "payable": false,
      "stateMutability": "view",
      "type": "function"
    }
  ],
  "bytecode": "0x608060405234801561001057600080fd5b50336000806101000a81548173ffffffffffffffffffffffffffffffffffffffff021916908373ffffffffffffffffffffffffffffffffffffffff1602179055506040518060400160405280600a81526020017f626c6f636b686f6c6963000000000000000000000000000000000000000000008152506001908051906020019061009c9291906100a2565b50610147565b828054600181600116156101000203166002900490600052602060002090601f016020900481019282601f106100e357805160ff1916838001178555610111565b82800160010185558215610111579182015b828111156101105782518255916020019190600101906100f5565b5b50905061011e9190610122565b5090565b61014491905b80821115610140576000816000905550600101610128565b5090565b90565b610b49806101566000396000f3fe608060405234801561001057600080fd5b50600436106100625760003560e01c806335f342321461006757806341c6e7c81461015657806393199b09146101a05780639fde0943146101be578063c8c5256c1461021d578063e9e309271461027f575b600080fd5b6100936004803603602081101561007d57600080fd5b810190808035906020019092919050505061036e565b604051808673ffffffffffffffffffffffffffffffffffffffff1673ffffffffffffffffffffffffffffffffffffffff16815260200185815260200184815260200183815260200180602001828103825283818151815260200191508051906020019080838360005b838110156101175780820151818401526020810190506100fc565b50505050905090810190601f1680156101445780820380516001836020036101000a031916815260200191505b50965050505050505060405180910390f35b61015e610469565b604051808273ffffffffffffffffffffffffffffffffffffffff1673ffffffffffffffffffffffffffffffffffffffff16815260200191505060405180910390f35b6101a861048e565b6040518082815260200191505060405180910390f35b6101c661049b565b6040518080602001828103825283818151815260200191508051906020019060200280838360005b838110156102095780820151818401526020810190506101ee565b505050509050019250505060405180910390f35b61027d6004803603608081101561023357600080fd5b81019080803573ffffffffffffffffffffffffffffffffffffffff16906020019092919080359060200190929190803590602001909291908035906020019092919050505061057f565b005b6102876108a1565b60405180806020018060200180602001848103845287818151815260200191508051906020019060200280838360005b838110156102d25780820151818401526020810190506102b7565b50505050905001848103835286818151815260200191508051906020019060200280838360005b838110156103145780820151818401526020810190506102f9565b50505050905001848103825285818151815260200191508051906020019060200280838360005b8381101561035657808201518184015260208101905061033b565b50505050905001965050505050505060405180910390f35b6002818154811061037b57fe5b90600052602060002090600502016000915090508060000160009054906101000a900473ffffffffffffffffffffffffffffffffffffffff1690806001015490806002015490806003015490806004018054600181600116156101000203166002900480601f01602080910402602001604051908101604052809291908181526020018280546001816001161561010002031660029004801561045f5780601f106104345761010080835404028352916020019161045f565b820191906000526020600020905b81548152906001019060200180831161044257829003601f168201915b5050505050905085565b6000809054906101000a900473ffffffffffffffffffffffffffffffffffffffff1681565b6000600280549050905090565b6060806002805490506040519080825280602002602001820160405280156104d25781602001602082028038833980820191505090505b50905060005b60028054905081101561057757600281815481106104f257fe5b906000526020600020906005020160000160009054906101000a900473ffffffffffffffffffffffffffffffffffffffff1682828151811061053057fe5b602002602001019073ffffffffffffffffffffffffffffffffffffffff16908173ffffffffffffffffffffffffffffffffffffffff168152505080806001019150506104d8565b508091505090565b6000809054906101000a900473ffffffffffffffffffffffffffffffffffffffff1673ffffffffffffffffffffffffffffffffffffffff163373ffffffffffffffffffffffffffffffffffffffff1614610641576040517f08c379a00000000000000000000000000000000000000000000000000000000081526004018080602001828103825260208152602001807f596f7520617265206e6f7420616e20617574686f72697a656420706572736f6e81525060200191505060405180910390fd5b610649610a24565b6040518060a001604052808673ffffffffffffffffffffffffffffffffffffffff16815260200185815260200184815260200183815260200160018054600181600116156101000203166002900480601f0160208091040260200160405190810160405280929190818152602001828054600181600116156101000203166002900480156107185780601f106106ed57610100808354040283529160200191610718565b820191906000526020600020905b8154815290600101906020018083116106fb57829003601f168201915b505050505081525090506002819080600181540180825580915050906001820390600052602060002090600502016000909192909190915060008201518160000160006101000a81548173ffffffffffffffffffffffffffffffffffffffff021916908373ffffffffffffffffffffffffffffffffffffffff16021790555060208201518160010155604082015181600201556060820151816003015560808201518160040190805190602001906107d1929190610a6f565b5050505080600360008773ffffffffffffffffffffffffffffffffffffffff1673ffffffffffffffffffffffffffffffffffffffff16815260200190815260200160002060008201518160000160006101000a81548173ffffffffffffffffffffffffffffffffffffffff021916908373ffffffffffffffffffffffffffffffffffffffff1602179055506020820151816001015560408201518160020155606082015181600301556080820151816004019080519060200190610896929190610a6f565b509050505050505050565b6060806060806002805490506040519080825280602002602001820160405280156108db5781602001602082028038833980820191505090505b50905060606002805490506040519080825280602002602001820160405280156109145781602001602082028038833980820191505090505b509050606060028054905060405190808252806020026020018201604052801561094d5781602001602082028038833980820191505090505b50905060005b600280549050811015610a12576002818154811061096d57fe5b90600052602060002090600502016001015484828151811061098b57fe5b602002602001018181525050600281815481106109a457fe5b9060005260206000209060050201600201548382815181106109c257fe5b602002602001018181525050600281815481106109db57fe5b9060005260206000209060050201600301548282815181106109f957fe5b6020026020010181815250508080600101915050610953565b50828282955095509550505050909192565b6040518060a00160405280600073ffffffffffffffffffffffffffffffffffffffff168152602001600080191681526020016000801916815260200160008152602001606081525090565b828054600181600116156101000203166002900490600052602060002090601f016020900481019282601f10610ab057805160ff1916838001178555610ade565b82800160010185558215610ade579182015b82811115610add578251825591602001919060010190610ac2565b5b509050610aeb9190610aef565b5090565b610b1191905b80821115610b0d576000816000905550600101610af5565b5090565b9056fea265627a7a72315820267e273843330618b6e5273aec4cf6c932673e3b7a7bcc5b33dd54e40f4a5c2864736f6c63430005100032",
  "source": "pragma solidity 0.5.16;\r\n\r\ncontract StudentRecord{\r\n    \r\n    address public blockholic;\r\n    string fromBlockholic;\r\n    \r\n    constructor() public{\r\n        blockholic=msg.sender;\r\n        fromBlockholic =\"blockholic\";\r\n    }\r\n    modifier onlyBlockholic(){\r\n        require(msg.sender==blockholic,\"You are not an authorized person\");\r\n        _;\r\n    }\r\n    \r\n    /* create a struct for individual student details*/\r\n    struct Student{\r\n        address studentAddress;\r\n        bytes32 fullName;\r\n        bytes32 courseName;\r\n        uint256 score;\r\n        string  createdBy;\r\n    }\r\n    \r\n    Student[] public student;/* array of student struct*/\r\n    mapping(address=>Student) studentAddressList;/*mapping gives list of student addresses */\r\n    \r\n    function addStudent(address _studentAddress,bytes32 _fullName,bytes32 _courseName,uint256 _score) public onlyBlockholic() {\r\n        /* adding student details only blockholic */\r\n        /*create instance of the struct */\r\n        \r\n        Student memory _student = Student(_studentAddress,_fullName,_courseName,_score,fromBlockholic);\r\n        student.push(_student); /*push the student record to the array*/\r\n        studentAddressList[_studentAddress]=_student;/*instance address pass to studentAddressList*/\r\n        \r\n    }\r\n    \r\n    function getAllStudentAddress()public view returns(address[] memory){\r\n        address[] memory studentsAddresses = new address[](student.length);\r\n        \r\n        for(uint i;i<student.length;i++){\r\n            studentsAddresses[i]=student[i].studentAddress;\r\n        }\r\n        return(studentsAddresses);\r\n    }\r\n    \r\n    function getAllStudents()    public view returns(bytes32[] memory,bytes32[] memory,uint256[] memory){\r\n        bytes32[] memory fullNames = new bytes32[](student.length);\r\n        bytes32[] memory courseNames = new bytes32[] (student.length);\r\n        uint256[] memory scores = new uint256[] (student.length);\r\n        \r\n        for(uint i; i<student.length;i++){\r\n            fullNames[i]=student[i].fullName;\r\n            courseNames[i]=student[i].courseName;\r\n            scores[i]= student[i].score;\r\n        }\r\n        return(fullNames,courseNames,scores);\r\n    }\r\n    \r\n    function numberOfStudents() public view returns(uint256){\r\n        return student.length;\r\n    }\r\n    \r\n}",
  "sourcePath": "C:/Users/USER/Desktop/New folder/truffle_studentrecord/studentrecord/contracts/StudentRecord.sol",
  "compiler": {
    "name": "solc",
    "version": "0.5.16+commit.9c3226ce.Emscripten.clang"
  },
  "schemaVersion": "3.2.2",
  "updatedAt": "2020-07-28T07:24:38.844Z",
  "networkType": "ethereum",
  "devdoc": {
    "methods": {}
  },
  "userdoc": {
    "methods": {}
  }
}